{
  "address": "0xd4c624766f4e006Dbe924D24C92A8d9927534C30",
  "abi": [
    {
      "inputs": [
        {
          "internalType": "contract L2OutputOracle",
          "name": "_l2Oracle",
          "type": "address"
        },
        {
          "internalType": "address",
          "name": "_guardian",
          "type": "address"
        },
        {
          "internalType": "bool",
          "name": "_paused",
          "type": "bool"
        }
      ],
      "stateMutability": "nonpayable",
      "type": "constructor"
    },
    {
      "anonymous": false,
      "inputs": [
        {
          "indexed": false,
          "internalType": "uint8",
          "name": "version",
          "type": "uint8"
        }
      ],
      "name": "Initialized",
      "type": "event"
    },
    {
      "anonymous": false,
      "inputs": [
        {
          "indexed": false,
          "internalType": "address",
          "name": "account",
          "type": "address"
        }
      ],
      "name": "Paused",
      "type": "event"
    },
    {
      "anonymous": false,
      "inputs": [
        {
          "indexed": false,
          "internalType": "bytes",
          "name": "pubkey",
          "type": "bytes"
        }
      ],
      "name": "PubKeyDeposited",
      "type": "event"
    },
    {
      "anonymous": false,
      "inputs": [
        {
          "indexed": true,
          "internalType": "address",
          "name": "from",
          "type": "address"
        },
        {
          "indexed": true,
          "internalType": "address",
          "name": "to",
          "type": "address"
        },
        {
          "indexed": true,
          "internalType": "uint256",
          "name": "version",
          "type": "uint256"
        },
        {
          "indexed": false,
          "internalType": "bytes",
          "name": "opaqueData",
          "type": "bytes"
        }
      ],
      "name": "TransactionDeposited",
      "type": "event"
    },
    {
      "anonymous": false,
      "inputs": [
        {
          "indexed": false,
          "internalType": "address",
          "name": "account",
          "type": "address"
        }
      ],
      "name": "Unpaused",
      "type": "event"
    },
    {
      "anonymous": false,
      "inputs": [
        {
          "indexed": true,
          "internalType": "bytes32",
          "name": "withdrawalHash",
          "type": "bytes32"
        },
        {
          "indexed": false,
          "internalType": "bool",
          "name": "success",
          "type": "bool"
        }
      ],
      "name": "WithdrawalFinalized",
      "type": "event"
    },
    {
      "anonymous": false,
      "inputs": [
        {
          "indexed": true,
          "internalType": "bytes32",
          "name": "withdrawalHash",
          "type": "bytes32"
        },
        {
          "indexed": true,
          "internalType": "address",
          "name": "from",
          "type": "address"
        },
        {
          "indexed": true,
          "internalType": "address",
          "name": "to",
          "type": "address"
        }
      ],
      "name": "WithdrawalProven",
      "type": "event"
    },
    {
      "inputs": [],
      "name": "BASE_FEE_MAX_CHANGE_DENOMINATOR",
      "outputs": [
        {
          "internalType": "int256",
          "name": "",
          "type": "int256"
        }
      ],
      "stateMutability": "view",
      "type": "function"
    },
    {
      "inputs": [],
      "name": "DepositContract",
      "outputs": [
        {
          "internalType": "contract IDepositContract",
          "name": "",
          "type": "address"
        }
      ],
      "stateMutability": "view",
      "type": "function"
    },
    {
      "inputs": [],
      "name": "ELASTICITY_MULTIPLIER",
      "outputs": [
        {
          "internalType": "int256",
          "name": "",
          "type": "int256"
        }
      ],
      "stateMutability": "view",
      "type": "function"
    },
    {
      "inputs": [],
      "name": "GUARDIAN",
      "outputs": [
        {
          "internalType": "address",
          "name": "",
          "type": "address"
        }
      ],
      "stateMutability": "view",
      "type": "function"
    },
    {
      "inputs": [],
      "name": "INITIAL_BASE_FEE",
      "outputs": [
        {
          "internalType": "uint128",
          "name": "",
          "type": "uint128"
        }
      ],
      "stateMutability": "view",
      "type": "function"
    },
    {
      "inputs": [],
      "name": "L2_ORACLE",
      "outputs": [
        {
          "internalType": "contract L2OutputOracle",
          "name": "",
          "type": "address"
        }
      ],
      "stateMutability": "view",
      "type": "function"
    },
    {
      "inputs": [],
      "name": "MAXIMUM_BASE_FEE",
      "outputs": [
        {
          "internalType": "int256",
          "name": "",
          "type": "int256"
        }
      ],
      "stateMutability": "view",
      "type": "function"
    },
    {
      "inputs": [],
      "name": "MAX_RESOURCE_LIMIT",
      "outputs": [
        {
          "internalType": "int256",
          "name": "",
          "type": "int256"
        }
      ],
      "stateMutability": "view",
      "type": "function"
    },
    {
      "inputs": [],
      "name": "MINIMUM_BASE_FEE",
      "outputs": [
        {
          "internalType": "int256",
          "name": "",
          "type": "int256"
        }
      ],
      "stateMutability": "view",
      "type": "function"
    },
    {
      "inputs": [],
      "name": "TARGET_RESOURCE_LIMIT",
      "outputs": [
        {
          "internalType": "int256",
          "name": "",
          "type": "int256"
        }
      ],
      "stateMutability": "view",
      "type": "function"
    },
    {
      "inputs": [
        {
          "internalType": "address",
          "name": "_to",
          "type": "address"
        },
        {
          "internalType": "uint256",
          "name": "_value",
          "type": "uint256"
        },
        {
          "internalType": "uint64",
          "name": "_gasLimit",
          "type": "uint64"
        },
        {
          "internalType": "bool",
          "name": "_isCreation",
          "type": "bool"
        },
        {
          "internalType": "bytes",
          "name": "_data",
          "type": "bytes"
        }
      ],
      "name": "depositTransaction",
      "outputs": [],
      "stateMutability": "payable",
      "type": "function"
    },
    {
      "inputs": [
        {
          "internalType": "bytes",
          "name": "_pubkey",
          "type": "bytes"
        },
        {
          "internalType": "bytes",
          "name": "_withdrawal_credentials",
          "type": "bytes"
        },
        {
          "internalType": "bytes",
          "name": "_signature",
          "type": "bytes"
        },
        {
          "internalType": "bytes32",
          "name": "_deposit_data_root",
          "type": "bytes32"
        }
      ],
      "name": "depositValidator",
      "outputs": [],
      "stateMutability": "nonpayable",
      "type": "function"
    },
    {
      "inputs": [],
      "name": "donateETH",
      "outputs": [],
      "stateMutability": "payable",
      "type": "function"
    },
    {
      "inputs": [
        {
          "components": [
            {
              "internalType": "uint256",
              "name": "nonce",
              "type": "uint256"
            },
            {
              "internalType": "address",
              "name": "sender",
              "type": "address"
            },
            {
              "internalType": "address",
              "name": "target",
              "type": "address"
            },
            {
              "internalType": "uint256",
              "name": "value",
              "type": "uint256"
            },
            {
              "internalType": "uint256",
              "name": "gasLimit",
              "type": "uint256"
            },
            {
              "internalType": "bytes",
              "name": "data",
              "type": "bytes"
            }
          ],
          "internalType": "struct Types.WithdrawalTransaction",
          "name": "_tx",
          "type": "tuple"
        }
      ],
      "name": "finalizeWithdrawalTransaction",
      "outputs": [],
      "stateMutability": "nonpayable",
      "type": "function"
    },
    {
      "inputs": [
        {
          "internalType": "bytes32",
          "name": "",
          "type": "bytes32"
        }
      ],
      "name": "finalizedWithdrawals",
      "outputs": [
        {
          "internalType": "bool",
          "name": "",
          "type": "bool"
        }
      ],
      "stateMutability": "view",
      "type": "function"
    },
    {
      "inputs": [
        {
          "internalType": "bool",
          "name": "_paused",
          "type": "bool"
        }
      ],
      "name": "initialize",
      "outputs": [],
      "stateMutability": "nonpayable",
      "type": "function"
    },
    {
      "inputs": [
        {
          "internalType": "uint256",
          "name": "_l2OutputIndex",
          "type": "uint256"
        }
      ],
      "name": "isOutputFinalized",
      "outputs": [
        {
          "internalType": "bool",
          "name": "",
          "type": "bool"
        }
      ],
      "stateMutability": "view",
      "type": "function"
    },
    {
      "inputs": [],
      "name": "l2Sender",
      "outputs": [
        {
          "internalType": "address",
          "name": "",
          "type": "address"
        }
      ],
      "stateMutability": "view",
      "type": "function"
    },
    {
      "inputs": [],
      "name": "params",
      "outputs": [
        {
          "internalType": "uint128",
          "name": "prevBaseFee",
          "type": "uint128"
        },
        {
          "internalType": "uint64",
          "name": "prevBoughtGas",
          "type": "uint64"
        },
        {
          "internalType": "uint64",
          "name": "prevBlockNum",
          "type": "uint64"
        }
      ],
      "stateMutability": "view",
      "type": "function"
    },
    {
      "inputs": [],
      "name": "pause",
      "outputs": [],
      "stateMutability": "nonpayable",
      "type": "function"
    },
    {
      "inputs": [],
      "name": "paused",
      "outputs": [
        {
          "internalType": "bool",
          "name": "",
          "type": "bool"
        }
      ],
      "stateMutability": "view",
      "type": "function"
    },
    {
      "inputs": [
        {
          "components": [
            {
              "internalType": "uint256",
              "name": "nonce",
              "type": "uint256"
            },
            {
              "internalType": "address",
              "name": "sender",
              "type": "address"
            },
            {
              "internalType": "address",
              "name": "target",
              "type": "address"
            },
            {
              "internalType": "uint256",
              "name": "value",
              "type": "uint256"
            },
            {
              "internalType": "uint256",
              "name": "gasLimit",
              "type": "uint256"
            },
            {
              "internalType": "bytes",
              "name": "data",
              "type": "bytes"
            }
          ],
          "internalType": "struct Types.WithdrawalTransaction",
          "name": "_tx",
          "type": "tuple"
        },
        {
          "internalType": "uint256",
          "name": "_l2OutputIndex",
          "type": "uint256"
        },
        {
          "components": [
            {
              "internalType": "bytes32",
              "name": "version",
              "type": "bytes32"
            },
            {
              "internalType": "bytes32",
              "name": "stateRoot",
              "type": "bytes32"
            },
            {
              "internalType": "bytes32",
              "name": "messagePasserStorageRoot",
              "type": "bytes32"
            },
            {
              "internalType": "bytes32",
              "name": "latestBlockhash",
              "type": "bytes32"
            }
          ],
          "internalType": "struct Types.OutputRootProof",
          "name": "_outputRootProof",
          "type": "tuple"
        },
        {
          "internalType": "bytes[]",
          "name": "_withdrawalProof",
          "type": "bytes[]"
        }
      ],
      "name": "proveWithdrawalTransaction",
      "outputs": [],
      "stateMutability": "nonpayable",
      "type": "function"
    },
    {
      "inputs": [
        {
          "internalType": "bytes32",
          "name": "",
          "type": "bytes32"
        }
      ],
      "name": "provenWithdrawals",
      "outputs": [
        {
          "internalType": "bytes32",
          "name": "outputRoot",
          "type": "bytes32"
        },
        {
          "internalType": "uint128",
          "name": "timestamp",
          "type": "uint128"
        },
        {
          "internalType": "uint128",
          "name": "l2OutputIndex",
          "type": "uint128"
        }
      ],
      "stateMutability": "view",
      "type": "function"
    },
    {
      "inputs": [
        {
          "internalType": "contract IDepositContract",
          "name": "_deposit",
          "type": "address"
        }
      ],
      "name": "setDepositContract",
      "outputs": [],
      "stateMutability": "nonpayable",
      "type": "function"
    },
    {
      "inputs": [
        {
          "internalType": "contract StakingFee",
          "name": "_stakingFee",
          "type": "address"
        }
      ],
      "name": "setStakingFee",
      "outputs": [],
      "stateMutability": "nonpayable",
      "type": "function"
    },
    {
      "inputs": [],
      "name": "stakingFee",
      "outputs": [
        {
          "internalType": "contract StakingFee",
          "name": "",
          "type": "address"
        }
      ],
      "stateMutability": "view",
      "type": "function"
    },
    {
      "inputs": [],
      "name": "unpause",
      "outputs": [],
      "stateMutability": "nonpayable",
      "type": "function"
    },
    {
      "inputs": [],
      "name": "version",
      "outputs": [
        {
          "internalType": "string",
          "name": "",
          "type": "string"
        }
      ],
      "stateMutability": "view",
      "type": "function"
    },
    {
      "stateMutability": "payable",
      "type": "receive"
    }
  ],
  "transactionHash": "0x977ab8cd5ebb0bf7653decb647637168e9f3f92cc477ef74a8e87e8001e43434",
  "args": [
    "0xf5d415d5c6cf8176583B455D3b777BbD19893f59",
    "0x8b3c18eae214ae242dc931789256bef10d0e1187",
    true
  ],
  "numDeployments": 1,
  "solcInputHash": "e6ae2547422b09bf6e638041e6a83850",
  "bytecode": "0x6101206040523480156200001257600080fd5b50604051620060603803806200606083398101604081905262000035916200028e565b6001608052600260a052600060c0526001600160a01b0380841660e05282166101005262000063816200006c565b505050620002e6565b600054610100900460ff16158080156200008d5750600054600160ff909116105b80620000bd5750620000aa30620001c360201b6200227c1760201c565b158015620000bd575060005460ff166001145b620001265760405162461bcd60e51b815260206004820152602e60248201527f496e697469616c697a61626c653a20636f6e747261637420697320616c72656160448201526d191e481a5b9a5d1a585b1a5e995960921b60648201526084015b60405180910390fd5b6000805460ff1916600117905580156200014a576000805461ff0019166101001790555b603280546001600160a01b03191661dead1790556037805483151560ff1990911617905562000178620001d2565b8015620001bf576000805461ff0019169055604051600181527f7f26b83ff96e1f2b6a682f133852f6798a09c465da95921460cefb38474024989060200160405180910390a15b5050565b6001600160a01b03163b151590565b600054610100900460ff166200023f5760405162461bcd60e51b815260206004820152602b60248201527f496e697469616c697a61626c653a20636f6e7472616374206973206e6f74206960448201526a6e697469616c697a696e6760a81b60648201526084016200011d565b60408051606081018252633b9aca0080825260006020830152436001600160401b031691909201819052600160c01b0217600155565b6001600160a01b03811681146200028b57600080fd5b50565b600080600060608486031215620002a457600080fd5b8351620002b18162000275565b6020850151909350620002c48162000275565b60408501519092508015158114620002db57600080fd5b809150509250925092565b60805160a05160c05160e05161010051615cef62000371600039600081816103fc01528181610a1401528181610b2001528181610c43015261152f0152600081816101f801528181610e95015281816110760152818161148b0152818161184501528181611ab70152612782015260006113f6015260006113cd015260006113a40152615cef6000f3fe6080604052600436106101ba5760003560e01c80638456cb59116100ec578063ca3e99ba1161008a578063d53a822f11610064578063d53a822f146105b3578063e965084c146105d3578063e9e05c421461065f578063eff988431461067257600080fd5b8063ca3e99ba146104e8578063cd7c9789146104fd578063cff0ab961461051257600080fd5b80638c3152e9116100c65780638c3152e91461044b5780639bf62d821461046b578063a14238e714610498578063bf3a6c0a146104c857600080fd5b80638456cb591461041e578063867ead13146104335780638b4c40b0146101df57600080fd5b806354fd4d501161015957806364b792081161013357806364b792081461039d5780636bb0291e146103b55780636dbffb78146103ca578063724c184c146103ea57600080fd5b806354fd4d501461031f5780635c1f2827146103415780635c975abb1461037357600080fd5b80631558687a116101955780631558687a1461029d5780633f4ba83a146102ca5780634084309f146102df5780634870496f146102ff57600080fd5b80621c2ff6146101e65780630ec2e8211461024457806313620abd1461026457600080fd5b366101e1576101df3334620186a060006040518060200160405280600081525061069f565b005b600080fd5b3480156101f257600080fd5b5061021a7f000000000000000000000000000000000000000000000000000000000000000081565b60405173ffffffffffffffffffffffffffffffffffffffff90911681526020015b60405180910390f35b34801561025057600080fd5b506101df61025f366004615043565b6109fc565b34801561027057600080fd5b5061027c633b9aca0081565b6040516fffffffffffffffffffffffffffffffff909116815260200161023b565b3480156102a957600080fd5b5060345461021a9073ffffffffffffffffffffffffffffffffffffffff1681565b3480156102d657600080fd5b506101df610b08565b3480156102eb57600080fd5b506101df6102fa366004615043565b610c2b565b34801561030b57600080fd5b506101df61031a36600461521b565b610d37565b34801561032b57600080fd5b5061033461139d565b60405161023b9190615371565b34801561034d57600080fd5b506103656fffffffffffffffffffffffffffffffff81565b60405190815260200161023b565b34801561037f57600080fd5b5060375461038d9060ff1681565b604051901515815260200161023b565b3480156103a957600080fd5b506103656301312d0081565b3480156103c157600080fd5b50610365600a81565b3480156103d657600080fd5b5061038d6103e5366004615384565b611440565b3480156103f657600080fd5b5061021a7f000000000000000000000000000000000000000000000000000000000000000081565b34801561042a57600080fd5b506101df611517565b34801561043f57600080fd5b50610365633b9aca0081565b34801561045757600080fd5b506101df61046636600461539d565b611637565b34801561047757600080fd5b5060325461021a9073ffffffffffffffffffffffffffffffffffffffff1681565b3480156104a457600080fd5b5061038d6104b3366004615384565b60356020526000908152604090205460ff1681565b3480156104d457600080fd5b506101df6104e336600461541b565b611f12565b3480156104f457600080fd5b5061036561207d565b34801561050957600080fd5b50610365600881565b34801561051e57600080fd5b5060015461057a906fffffffffffffffffffffffffffffffff81169067ffffffffffffffff7001000000000000000000000000000000008204811691780100000000000000000000000000000000000000000000000090041683565b604080516fffffffffffffffffffffffffffffffff909416845267ffffffffffffffff928316602085015291169082015260600161023b565b3480156105bf57600080fd5b506101df6105ce3660046154d3565b61208f565b3480156105df57600080fd5b506106316105ee366004615384565b603660205260009081526040902080546001909101546fffffffffffffffffffffffffffffffff8082169170010000000000000000000000000000000090041683565b604080519384526fffffffffffffffffffffffffffffffff928316602085015291169082015260600161023b565b6101df61066d3660046154ee565b61069f565b34801561067e57600080fd5b5060335461021a9073ffffffffffffffffffffffffffffffffffffffff1681565b8260005a905083156107565773ffffffffffffffffffffffffffffffffffffffff87161561075657604080517f08c379a00000000000000000000000000000000000000000000000000000000081526020600482015260248101919091527f4f7074696d69736d506f7274616c3a206d7573742073656e6420746f2061646460448201527f72657373283029207768656e206372656174696e67206120636f6e747261637460648201526084015b60405180910390fd5b6152088567ffffffffffffffff1610156107f2576040517f08c379a000000000000000000000000000000000000000000000000000000000815260206004820152603860248201527f4f7074696d69736d506f7274616c3a20676173206c696d6974206d757374206360448201527f6f76657220696e737472696e7369632067617320636f73740000000000000000606482015260840161074d565b6000670de0b6b3a764000034603360009054906101000a900473ffffffffffffffffffffffffffffffffffffffff1673ffffffffffffffffffffffffffffffffffffffff166398d5fdca6040518163ffffffff1660e01b81526004016020604051808303816000875af115801561086d573d6000803e3d6000fd5b505050506040513d601f19601f820116820180604052508101906108919190615575565b61089b91906155bd565b6108a59190615629565b6033546040517f1d10faf60000000000000000000000000000000000000000000000000000000081523460048201526024810183905291925073ffffffffffffffffffffffffffffffffffffffff1690631d10faf690604401600060405180830381600087803b15801561091857600080fd5b505af115801561092c573d6000803e3d6000fd5b50339250503282149050610953575033731111000000000000000000000000000000001111015b6000828389898960405160200161096e95949392919061563d565b604051602081830303815290604052905060008a73ffffffffffffffffffffffffffffffffffffffff168373ffffffffffffffffffffffffffffffffffffffff167fb3813568d9991fc951961fcb4c784893574240a28925604d09fc577c55bb7c32846040516109de9190615371565b60405180910390a45050506109f38282612298565b50505050505050565b3373ffffffffffffffffffffffffffffffffffffffff7f00000000000000000000000000000000000000000000000000000000000000001614610ac1576040517f08c379a000000000000000000000000000000000000000000000000000000000815260206004820152602560248201527f4f7074696d69736d506f7274616c3a206f6e6c7920677561726469616e20636160448201527f6e20736574000000000000000000000000000000000000000000000000000000606482015260840161074d565b603480547fffffffffffffffffffffffff00000000000000000000000000000000000000001673ffffffffffffffffffffffffffffffffffffffff92909216919091179055565b3373ffffffffffffffffffffffffffffffffffffffff7f00000000000000000000000000000000000000000000000000000000000000001614610bcd576040517f08c379a000000000000000000000000000000000000000000000000000000000815260206004820152602960248201527f4f7074696d69736d506f7274616c3a206f6e6c7920677561726469616e20636160448201527f6e20756e70617573650000000000000000000000000000000000000000000000606482015260840161074d565b603780547fffffffffffffffffffffffffffffffffffffffffffffffffffffffffffffff001690556040513381527f5db9ee0a495bf2e6ff9c91a7834c1ba4fdd244a5e8aa4e537bd38aeae4b073aa906020015b60405180910390a1565b3373ffffffffffffffffffffffffffffffffffffffff7f00000000000000000000000000000000000000000000000000000000000000001614610cf0576040517f08c379a000000000000000000000000000000000000000000000000000000000815260206004820152602560248201527f4f7074696d69736d506f7274616c3a206f6e6c7920677561726469616e20636160448201527f6e20736574000000000000000000000000000000000000000000000000000000606482015260840161074d565b603380547fffffffffffffffffffffffff00000000000000000000000000000000000000001673ffffffffffffffffffffffffffffffffffffffff92909216919091179055565b60375460ff1615610da4576040517f08c379a000000000000000000000000000000000000000000000000000000000815260206004820152601660248201527f4f7074696d69736d506f7274616c3a2070617573656400000000000000000000604482015260640161074d565b3073ffffffffffffffffffffffffffffffffffffffff16856040015173ffffffffffffffffffffffffffffffffffffffff1603610e63576040517f08c379a000000000000000000000000000000000000000000000000000000000815260206004820152603f60248201527f4f7074696d69736d506f7274616c3a20796f752063616e6e6f742073656e642060448201527f6d6573736167657320746f2074686520706f7274616c20636f6e747261637400606482015260840161074d565b6040517fa25ae557000000000000000000000000000000000000000000000000000000008152600481018590526000907f000000000000000000000000000000000000000000000000000000000000000073ffffffffffffffffffffffffffffffffffffffff169063a25ae55790602401606060405180830381865afa158015610ef1573d6000803e3d6000fd5b505050506040513d601f19601f82011682018060405250810190610f1591906156c2565b519050610f2f610f2a36869003860186615727565b612591565b8114610fbd576040517f08c379a000000000000000000000000000000000000000000000000000000000815260206004820152602960248201527f4f7074696d69736d506f7274616c3a20696e76616c6964206f7574707574207260448201527f6f6f742070726f6f660000000000000000000000000000000000000000000000606482015260840161074d565b6000610fc8876125ed565b6000818152603660209081526040918290208251606081018452815481526001909101546fffffffffffffffffffffffffffffffff80821693830184905270010000000000000000000000000000000090910416928101929092529192509015806110fa5750805160408083015190517fa25ae5570000000000000000000000000000000000000000000000000000000081526fffffffffffffffffffffffffffffffff90911660048201527f000000000000000000000000000000000000000000000000000000000000000073ffffffffffffffffffffffffffffffffffffffff169063a25ae55790602401606060405180830381865afa1580156110d2573d6000803e3d6000fd5b505050506040513d601f19601f820116820180604052508101906110f691906156c2565b5114155b611186576040517f08c379a000000000000000000000000000000000000000000000000000000000815260206004820152603760248201527f4f7074696d69736d506f7274616c3a207769746864726177616c20686173682060448201527f68617320616c7265616479206265656e2070726f76656e000000000000000000606482015260840161074d565b60408051602081018490526000918101829052606001604080517fffffffffffffffffffffffffffffffffffffffffffffffffffffffffffffffe08184030181528282528051602091820120908301819052925061124f9101604080517fffffffffffffffffffffffffffffffffffffffffffffffffffffffffffffffe0818403018152828201909152600182527f0100000000000000000000000000000000000000000000000000000000000000602083015290611245888a61578d565b8a6040013561261d565b6112db576040517f08c379a000000000000000000000000000000000000000000000000000000000815260206004820152603260248201527f4f7074696d69736d506f7274616c3a20696e76616c696420776974686472617760448201527f616c20696e636c7573696f6e2070726f6f660000000000000000000000000000606482015260840161074d565b604080516060810182528581526fffffffffffffffffffffffffffffffff42811660208084019182528c831684860190815260008981526036835286812095518655925190518416700100000000000000000000000000000000029316929092176001909301929092558b830151908c0151925173ffffffffffffffffffffffffffffffffffffffff918216939091169186917f67a6208cfcc0801d50f6cbe764733f4fddf66ac0b04442061a8a8c0cb6b63f629190a4505050505050505050565b60606113c87f0000000000000000000000000000000000000000000000000000000000000000612641565b6113f17f0000000000000000000000000000000000000000000000000000000000000000612641565b61141a7f0000000000000000000000000000000000000000000000000000000000000000612641565b60405160200161142c93929190615811565b604051602081830303815290604052905090565b6040517fa25ae557000000000000000000000000000000000000000000000000000000008152600481018290526000906115119073ffffffffffffffffffffffffffffffffffffffff7f0000000000000000000000000000000000000000000000000000000000000000169063a25ae55790602401606060405180830381865afa1580156114d2573d6000803e3d6000fd5b505050506040513d601f19601f820116820180604052508101906114f691906156c2565b602001516fffffffffffffffffffffffffffffffff1661277e565b92915050565b3373ffffffffffffffffffffffffffffffffffffffff7f000000000000000000000000000000000000000000000000000000000000000016146115dc576040517f08c379a000000000000000000000000000000000000000000000000000000000815260206004820152602760248201527f4f7074696d69736d506f7274616c3a206f6e6c7920677561726469616e20636160448201527f6e20706175736500000000000000000000000000000000000000000000000000606482015260840161074d565b603780547fffffffffffffffffffffffffffffffffffffffffffffffffffffffffffffff001660011790556040513381527f62e78cea01bee320cd4e420270b5ea74000d11b0c9f74754ebdbfc544b05a25890602001610c21565b60375460ff16156116a4576040517f08c379a000000000000000000000000000000000000000000000000000000000815260206004820152601660248201527f4f7074696d69736d506f7274616c3a2070617573656400000000000000000000604482015260640161074d565b60325473ffffffffffffffffffffffffffffffffffffffff1661dead1461174d576040517f08c379a000000000000000000000000000000000000000000000000000000000815260206004820152603f60248201527f4f7074696d69736d506f7274616c3a2063616e206f6e6c79207472696767657260448201527f206f6e65207769746864726177616c20706572207472616e73616374696f6e00606482015260840161074d565b6000611758826125ed565b60008181526036602090815260408083208151606081018352815481526001909101546fffffffffffffffffffffffffffffffff80821694830185905270010000000000000000000000000000000090910416918101919091529293509003611843576040517f08c379a000000000000000000000000000000000000000000000000000000000815260206004820152603260248201527f4f7074696d69736d506f7274616c3a207769746864726177616c20686173206e60448201527f6f74206265656e2070726f76656e207965740000000000000000000000000000606482015260840161074d565b7f000000000000000000000000000000000000000000000000000000000000000073ffffffffffffffffffffffffffffffffffffffff1663887862726040518163ffffffff1660e01b8152600401602060405180830381865afa1580156118ae573d6000803e3d6000fd5b505050506040513d601f19601f820116820180604052508101906118d29190615575565b81602001516fffffffffffffffffffffffffffffffff16101561199d576040517f08c379a000000000000000000000000000000000000000000000000000000000815260206004820152604b60248201527f4f7074696d69736d506f7274616c3a207769746864726177616c2074696d657360448201527f74616d70206c657373207468616e204c32204f7261636c65207374617274696e60648201527f672074696d657374616d70000000000000000000000000000000000000000000608482015260a40161074d565b6119bc81602001516fffffffffffffffffffffffffffffffff1661277e565b611a6e576040517f08c379a000000000000000000000000000000000000000000000000000000000815260206004820152604560248201527f4f7074696d69736d506f7274616c3a2070726f76656e2077697468647261776160448201527f6c2066696e616c697a6174696f6e20706572696f6420686173206e6f7420656c60648201527f6170736564000000000000000000000000000000000000000000000000000000608482015260a40161074d565b60408181015190517fa25ae5570000000000000000000000000000000000000000000000000000000081526fffffffffffffffffffffffffffffffff90911660048201526000907f000000000000000000000000000000000000000000000000000000000000000073ffffffffffffffffffffffffffffffffffffffff169063a25ae55790602401606060405180830381865afa158015611b13573d6000803e3d6000fd5b505050506040513d601f19601f82011682018060405250810190611b3791906156c2565b8251815191925014611bf1576040517f08c379a000000000000000000000000000000000000000000000000000000000815260206004820152604960248201527f4f7074696d69736d506f7274616c3a206f757470757420726f6f742070726f7660448201527f656e206973206e6f74207468652073616d652061732063757272656e74206f7560648201527f7470757420726f6f740000000000000000000000000000000000000000000000608482015260a40161074d565b611c1081602001516fffffffffffffffffffffffffffffffff1661277e565b611cc2576040517f08c379a000000000000000000000000000000000000000000000000000000000815260206004820152604360248201527f4f7074696d69736d506f7274616c3a206f75747075742070726f706f73616c2060448201527f66696e616c697a6174696f6e20706572696f6420686173206e6f7420656c617060648201527f7365640000000000000000000000000000000000000000000000000000000000608482015260a40161074d565b60008381526035602052604090205460ff1615611d61576040517f08c379a000000000000000000000000000000000000000000000000000000000815260206004820152603560248201527f4f7074696d69736d506f7274616c3a207769746864726177616c20686173206160448201527f6c7265616479206265656e2066696e616c697a65640000000000000000000000606482015260840161074d565b600083815260356020908152604080832080547fffffffffffffffffffffffffffffffffffffffffffffffffffffffffffffff00166001179055908601516032805473ffffffffffffffffffffffffffffffffffffffff9092167fffffffffffffffffffffffff00000000000000000000000000000000000000009092169190911790558501516080860151606087015160a0880151611e0393929190612821565b603280547fffffffffffffffffffffffff00000000000000000000000000000000000000001661dead17905560405190915084907fdb5c7652857aa163daadd670e116628fb42e869d8ac4251ef8971d9e5727df1b90611e6890841515815260200190565b60405180910390a280158015611e7e5750326001145b15611f0b576040517f08c379a000000000000000000000000000000000000000000000000000000000815260206004820152602160248201527f4f7074696d69736d506f7274616c3a207769746864726177616c206661696c6560448201527f6400000000000000000000000000000000000000000000000000000000000000606482015260840161074d565b5050505050565b6034546040517f2289511800000000000000000000000000000000000000000000000000000000815273ffffffffffffffffffffffffffffffffffffffff909116906322895118906801bc16d674ec80000090611f7f908b908b908b908b908b908b908b906004016158d0565b6000604051808303818588803b158015611f9857600080fd5b505af1158015611fac573d6000803e3d6000fd5b50506033546040517f0ea9c0ab00000000000000000000000000000000000000000000000000000000815273ffffffffffffffffffffffffffffffffffffffff9091169350630ea9c0ab925061200991508a908a90600401615921565b600060405180830381600087803b15801561202357600080fd5b505af1158015612037573d6000803e3d6000fd5b505050507f144679c9e19454710222d38e13b257573a15b6ca6a4d10a1254ebc2480cb6863878760405161206c929190615921565b60405180910390a150505050505050565b61208c600a6301312d00615935565b81565b600054610100900460ff16158080156120af5750600054600160ff909116105b806120c95750303b1580156120c9575060005460ff166001145b612155576040517f08c379a000000000000000000000000000000000000000000000000000000000815260206004820152602e60248201527f496e697469616c697a61626c653a20636f6e747261637420697320616c72656160448201527f647920696e697469616c697a6564000000000000000000000000000000000000606482015260840161074d565b600080547fffffffffffffffffffffffffffffffffffffffffffffffffffffffffffffff0016600117905580156121b357600080547fffffffffffffffffffffffffffffffffffffffffffffffffffffffffffff00ff166101001790555b603280547fffffffffffffffffffffffff00000000000000000000000000000000000000001661dead179055603780548315157fffffffffffffffffffffffffffffffffffffffffffffffffffffffffffffff0090911617905561221561287b565b801561227857600080547fffffffffffffffffffffffffffffffffffffffffffffffffffffffffffff00ff169055604051600181527f7f26b83ff96e1f2b6a682f133852f6798a09c465da95921460cefb38474024989060200160405180910390a15b5050565b73ffffffffffffffffffffffffffffffffffffffff163b151590565b6001546000906122ce907801000000000000000000000000000000000000000000000000900467ffffffffffffffff164361599d565b905080156124065760006122e7600a6301312d00615935565b6001546123129190700100000000000000000000000000000000900467ffffffffffffffff166159b4565b905060006008612327600a6301312d00615935565b6123319190615a28565b6001546123519084906fffffffffffffffffffffffffffffffff16615a28565b61235b9190615935565b6001549091506000906123a0906123859084906fffffffffffffffffffffffffffffffff16615ae4565b633b9aca006fffffffffffffffffffffffffffffffff61295e565b905060018411156123c7576123c46123858260086123bf60018961599d565b61297d565b90505b6fffffffffffffffffffffffffffffffff16780100000000000000000000000000000000000000000000000067ffffffffffffffff4316021760015550505b60018054849190601090612439908490700100000000000000000000000000000000900467ffffffffffffffff16615b58565b92506101000a81548167ffffffffffffffff021916908367ffffffffffffffff1602179055506301312d00600160000160109054906101000a900467ffffffffffffffff1667ffffffffffffffff161315612516576040517f08c379a000000000000000000000000000000000000000000000000000000000815260206004820152603e60248201527f5265736f757263654d65746572696e673a2063616e6e6f7420627579206d6f7260448201527f6520676173207468616e20617661696c61626c6520676173206c696d69740000606482015260840161074d565b600154600090612542906fffffffffffffffffffffffffffffffff1667ffffffffffffffff86166155bd565b9050600061255448633b9aca006129d2565b61255e9083615629565b905060005a61256d908661599d565b90508082111561258957612589612584828461599d565b6129e9565b505050505050565b600081600001518260200151836040015184606001516040516020016125d0949392919093845260208401929092526040830152606082015260800190565b604051602081830303815290604052805190602001209050919050565b80516020808301516040808501516060860151608087015160a088015193516000976125d0979096959101615b84565b60008061262986612a17565b905061263781868686612a49565b9695505050505050565b60608160000361268457505060408051808201909152600181527f3000000000000000000000000000000000000000000000000000000000000000602082015290565b8160005b81156126ae578061269881615bdb565b91506126a79050600a83615629565b9150612688565b60008167ffffffffffffffff8111156126c9576126c9615060565b6040519080825280601f01601f1916602001820160405280156126f3576020820181803683370190505b5090505b84156127765761270860018361599d565b9150612715600a86615c13565b612720906030615c27565b60f81b81838151811061273557612735615c3f565b60200101907effffffffffffffffffffffffffffffffffffffffffffffffffffffffffffff1916908160001a90535061276f600a86615629565b94506126f7565b949350505050565b60007f000000000000000000000000000000000000000000000000000000000000000073ffffffffffffffffffffffffffffffffffffffff1663f4daa2916040518163ffffffff1660e01b8152600401602060405180830381865afa1580156127eb573d6000803e3d6000fd5b505050506040513d601f19601f8201168201806040525081019061280f9190615575565b6128199083615c27565b421192915050565b600080603f60c88601604002045a1015612864576308c379a06000526020805278185361666543616c6c3a204e6f7420656e6f756768206761736058526064601cfd5b600080845160208601878a5af19695505050505050565b600054610100900460ff16612912576040517f08c379a000000000000000000000000000000000000000000000000000000000815260206004820152602b60248201527f496e697469616c697a61626c653a20636f6e7472616374206973206e6f74206960448201527f6e697469616c697a696e67000000000000000000000000000000000000000000606482015260840161074d565b60408051606081018252633b9aca00808252600060208301524367ffffffffffffffff169190920181905278010000000000000000000000000000000000000000000000000217600155565b600061297361296d8585612a79565b83612a89565b90505b9392505050565b6000670de0b6b3a76400006129be6129958583615935565b6129a790670de0b6b3a76400006159b4565b6129b985670de0b6b3a7640000615a28565b612a98565b6129c89086615a28565b6129739190615935565b6000818310156129e25781612976565b5090919050565b6000805a90505b825a6129fc908361599d565b1015612a1257612a0b82615bdb565b91506129f0565b505050565b60608180519060200120604051602001612a3391815260200190565b6040516020818303038152906040529050919050565b6000612a7084612a5a878686612ac9565b8051602091820120825192909101919091201490565b95945050505050565b6000818312156129e25781612976565b60008183126129e25781612976565b6000612976670de0b6b3a764000083612ab086613551565b612aba9190615a28565b612ac49190615935565b613795565b60606000845111612b36576040517f08c379a000000000000000000000000000000000000000000000000000000000815260206004820152601560248201527f4d65726b6c65547269653a20656d707479206b65790000000000000000000000604482015260640161074d565b6000612b41846139d4565b90506000612b4e86613ac3565b9050600084604051602001612b6591815260200190565b60405160208183030381529060405290506000805b84518110156134c8576000858281518110612b9757612b97615c3f565b602002602001015190508451831115612c32576040517f08c379a000000000000000000000000000000000000000000000000000000000815260206004820152602e60248201527f4d65726b6c65547269653a206b657920696e646578206578636565647320746f60448201527f74616c206b6579206c656e677468000000000000000000000000000000000000606482015260840161074d565b82600003612ceb5780518051602091820120604051612c8092612c5a92910190815260200190565b604051602081830303815290604052858051602091820120825192909101919091201490565b612ce6576040517f08c379a000000000000000000000000000000000000000000000000000000000815260206004820152601d60248201527f4d65726b6c65547269653a20696e76616c696420726f6f742068617368000000604482015260640161074d565b612e42565b805151602011612da15780518051602091820120604051612d1592612c5a92910190815260200190565b612ce6576040517f08c379a000000000000000000000000000000000000000000000000000000000815260206004820152602760248201527f4d65726b6c65547269653a20696e76616c6964206c6172676520696e7465726e60448201527f616c206861736800000000000000000000000000000000000000000000000000606482015260840161074d565b805184516020808701919091208251919092012014612e42576040517f08c379a000000000000000000000000000000000000000000000000000000000815260206004820152602660248201527f4d65726b6c65547269653a20696e76616c696420696e7465726e616c206e6f6460448201527f6520686173680000000000000000000000000000000000000000000000000000606482015260840161074d565b612e4e60106001615c27565b8160200151510361302f5784518303612fc7576000612e8a8260200151601081518110612e7d57612e7d615c3f565b6020026020010151613c5e565b90506000815111612f1d576040517f08c379a000000000000000000000000000000000000000000000000000000000815260206004820152603b60248201527f4d65726b6c65547269653a2076616c7565206c656e677468206d75737420626560448201527f2067726561746572207468616e207a65726f20286272616e6368290000000000606482015260840161074d565b60018751612f2b919061599d565b8314612fb9576040517f08c379a000000000000000000000000000000000000000000000000000000000815260206004820152603a60248201527f4d65726b6c65547269653a2076616c7565206e6f6465206d757374206265206c60448201527f617374206e6f646520696e2070726f6f6620286272616e636829000000000000606482015260840161074d565b965061297695505050505050565b6000858481518110612fdb57612fdb615c3f565b602001015160f81c60f81b60f81c9050600082602001518260ff168151811061300657613006615c3f565b6020026020010151905061301981613dbe565b9550613026600186615c27565b945050506134b5565b60028160200151510361342d57600061304782613de3565b905060008160008151811061305e5761305e615c3f565b016020015160f81c90506000613075600283615c6e565b613080906002615c90565b90506000613091848360ff16613e07565b9050600061309f8a89613e07565b905060006130ad8383613e3d565b90508083511461313f576040517f08c379a000000000000000000000000000000000000000000000000000000000815260206004820152603a60248201527f4d65726b6c65547269653a20706174682072656d61696e646572206d7573742060448201527f736861726520616c6c206e6962626c65732077697468206b6579000000000000606482015260840161074d565b60ff851660021480613154575060ff85166003145b1561334857808251146131e9576040517f08c379a000000000000000000000000000000000000000000000000000000000815260206004820152603d60248201527f4d65726b6c65547269653a206b65792072656d61696e646572206d757374206260448201527f65206964656e746963616c20746f20706174682072656d61696e646572000000606482015260840161074d565b60006132058860200151600181518110612e7d57612e7d615c3f565b90506000815111613298576040517f08c379a000000000000000000000000000000000000000000000000000000000815260206004820152603960248201527f4d65726b6c65547269653a2076616c7565206c656e677468206d75737420626560448201527f2067726561746572207468616e207a65726f20286c6561662900000000000000606482015260840161074d565b60018d516132a6919061599d565b8914613334576040517f08c379a000000000000000000000000000000000000000000000000000000000815260206004820152603860248201527f4d65726b6c65547269653a2076616c7565206e6f6465206d757374206265206c60448201527f617374206e6f646520696e2070726f6f6620286c656166290000000000000000606482015260840161074d565b9c506129769b505050505050505050505050565b60ff8516158061335b575060ff85166001145b1561339a57613387876020015160018151811061337a5761337a615c3f565b6020026020010151613dbe565b9950613393818a615c27565b9850613422565b6040517f08c379a000000000000000000000000000000000000000000000000000000000815260206004820152603260248201527f4d65726b6c65547269653a2072656365697665642061206e6f6465207769746860448201527f20616e20756e6b6e6f776e207072656669780000000000000000000000000000606482015260840161074d565b5050505050506134b5565b6040517f08c379a000000000000000000000000000000000000000000000000000000000815260206004820152602860248201527f4d65726b6c65547269653a20726563656976656420616e20756e70617273656160448201527f626c65206e6f6465000000000000000000000000000000000000000000000000606482015260840161074d565b50806134c081615bdb565b915050612b7a565b506040517f08c379a000000000000000000000000000000000000000000000000000000000815260206004820152602560248201527f4d65726b6c65547269653a2072616e206f7574206f662070726f6f6620656c6560448201527f6d656e7473000000000000000000000000000000000000000000000000000000606482015260840161074d565b60008082136135bc576040517f08c379a000000000000000000000000000000000000000000000000000000000815260206004820152600960248201527f554e444546494e45440000000000000000000000000000000000000000000000604482015260640161074d565b600060606135c984613eec565b03609f8181039490941b90931c6c465772b2bbbb5f824b15207a3081018102606090811d6d0388eaa27412d5aca026815d636e018202811d6d0df99ac502031bf953eff472fdcc018202811d6d13cdffb29d51d99322bdff5f2211018202811d6d0a0f742023def783a307a986912e018202811d6d01920d8043ca89b5239253284e42018202811d6c0b7a86d7375468fac667a0a527016c29508e458543d8aa4df2abee7883018302821d6d0139601a2efabe717e604cbb4894018302821d6d02247f7a7b6594320649aa03aba1018302821d7fffffffffffffffffffffffffffffffffffffff73c0c716a594e00d54e3c4cbc9018302821d7ffffffffffffffffffffffffffffffffffffffdc7b88c420e53a9890533129f6f01830290911d7fffffffffffffffffffffffffffffffffffffff465fda27eb4d63ded474e5f832019091027ffffffffffffffff5f6af8f7b3396644f18e157960000000000000000000000000105711340daa0d5f769dba1915cef59f0815a5506027d0267a36c0c95b3975ab3ee5b203a7614a3f75373f047d803ae7b6687f2b393909302929092017d57115e47018c7177eebf7cd370a3356a1b7863008a5ae8028c72b88642840160ae1d92915050565b60007ffffffffffffffffffffffffffffffffffffffffffffffffdb731c958f34d94c182136137c657506000919050565b680755bf798b4a1bf1e58212613838576040517f08c379a000000000000000000000000000000000000000000000000000000000815260206004820152600c60248201527f4558505f4f564552464c4f570000000000000000000000000000000000000000604482015260640161074d565b6503782dace9d9604e83901b059150600060606bb17217f7d1cf79abc9e3b39884821b056b80000000000000000000000001901d6bb17217f7d1cf79abc9e3b39881029093037fffffffffffffffffffffffffffffffffffffffdbf3ccf1604d263450f02a550481018102606090811d6d0277594991cfc85f6e2461837cd9018202811d7fffffffffffffffffffffffffffffffffffffe5adedaa1cb095af9e4da10e363c018202811d6db1bbb201f443cf962f1a1d3db4a5018202811d7ffffffffffffffffffffffffffffffffffffd38dc772608b0ae56cce01296c0eb018202811d6e05180bb14799ab47a8a8cb2a527d57016d02d16720577bd19bf614176fe9ea6c10fe68e7fd37d0007b713f765084018402831d9081019084017ffffffffffffffffffffffffffffffffffffffe2c69812cf03b0763fd454a8f7e010290911d6e0587f503bb6ea29d25fcb7401964500190910279d835ebba824c98fb31b83b2ca45c000000000000000000000000010574029d9dc38563c32e5c2f6dc192ee70ef65f9978af30260c3939093039290921c92915050565b805160609060008167ffffffffffffffff8111156139f4576139f4615060565b604051908082528060200260200182016040528015613a3957816020015b6040805180820190915260608082526020820152815260200190600190039081613a125790505b50905060005b82811015613abb576040518060400160405280868381518110613a6457613a64615c3f565b60200260200101518152602001613a93878481518110613a8657613a86615c3f565b6020026020010151613fc2565b815250828281518110613aa857613aa8615c3f565b6020908102919091010152600101613a3f565b509392505050565b80516060906000613ad58260026155bd565b67ffffffffffffffff811115613aed57613aed615060565b6040519080825280601f01601f191660200182016040528015613b17576020820181803683370190505b5090506000805b83811015613c5457858181518110613b3857613b38615c3f565b6020910101517fff000000000000000000000000000000000000000000000000000000000000008116925060041c7f0ff00000000000000000000000000000000000000000000000000000000000001683613b948360026155bd565b81518110613ba457613ba4615c3f565b60200101907effffffffffffffffffffffffffffffffffffffffffffffffffffffffffffff1916908160001a9053507f0f00000000000000000000000000000000000000000000000000000000000000821683613c028360026155bd565b613c0d906001615c27565b81518110613c1d57613c1d615c3f565b60200101907effffffffffffffffffffffffffffffffffffffffffffffffffffffffffffff1916908160001a905350600101613b1e565b5090949350505050565b60606000806000613c6e85613fd5565b919450925090506000816001811115613c8957613c89615cb3565b14613d16576040517f08c379a000000000000000000000000000000000000000000000000000000000815260206004820152603960248201527f524c505265616465723a206465636f646564206974656d207479706520666f7260448201527f206279746573206973206e6f7420612064617461206974656d00000000000000606482015260840161074d565b613d208284615c27565b855114613daf576040517f08c379a000000000000000000000000000000000000000000000000000000000815260206004820152603460248201527f524c505265616465723a2062797465732076616c756520636f6e7461696e732060448201527f616e20696e76616c69642072656d61696e646572000000000000000000000000606482015260840161074d565b612a7085602001518484614a42565b60606020826000015110613dda57613dd582613c5e565b611511565b61151182614ae3565b6060611511613e028360200151600081518110612e7d57612e7d615c3f565b613ac3565b606082518210613e265750604080516020810190915260008152611511565b6129768383848651613e38919061599d565b614af9565b60008060008351855110613e52578351613e55565b84515b90505b8082108015613edc5750838281518110613e7457613e74615c3f565b602001015160f81c60f81b7effffffffffffffffffffffffffffffffffffffffffffffffffffffffffffff1916858381518110613eb357613eb3615c3f565b01602001517fff0000000000000000000000000000000000000000000000000000000000000016145b15613abb57816001019150613e58565b6000808211613f57576040517f08c379a000000000000000000000000000000000000000000000000000000000815260206004820152600960248201527f554e444546494e45440000000000000000000000000000000000000000000000604482015260640161074d565b5060016fffffffffffffffffffffffffffffffff821160071b82811c67ffffffffffffffff1060061b1782811c63ffffffff1060051b1782811c61ffff1060041b1782811c60ff10600390811b90911783811c600f1060021b1783811c909110821b1791821c111790565b6060611511613fd083614cd1565b614dba565b600080600080846000015111614093576040517f08c379a000000000000000000000000000000000000000000000000000000000815260206004820152604a60248201527f524c505265616465723a206c656e677468206f6620616e20524c50206974656d60448201527f206d7573742062652067726561746572207468616e207a65726f20746f20626560648201527f206465636f6461626c6500000000000000000000000000000000000000000000608482015260a40161074d565b6020840151805160001a607f81116140b8576000600160009450945094505050614a3b565b60b781116142c65760006140cd60808361599d565b905080876000015111614188576040517f08c379a000000000000000000000000000000000000000000000000000000000815260206004820152604e60248201527f524c505265616465723a206c656e677468206f6620636f6e74656e74206d757360448201527f742062652067726561746572207468616e20737472696e67206c656e6774682060648201527f2873686f727420737472696e6729000000000000000000000000000000000000608482015260a40161074d565b6001838101517fff0000000000000000000000000000000000000000000000000000000000000016908214158061420157507f80000000000000000000000000000000000000000000000000000000000000007fff00000000000000000000000000000000000000000000000000000000000000821610155b6142b3576040517f08c379a000000000000000000000000000000000000000000000000000000000815260206004820152604d60248201527f524c505265616465723a20696e76616c6964207072656669782c2073696e676c60448201527f652062797465203c203078383020617265206e6f74207072656669786564202860648201527f73686f727420737472696e672900000000000000000000000000000000000000608482015260a40161074d565b5060019550935060009250614a3b915050565b60bf81116146145760006142db60b78361599d565b905080876000015111614396576040517f08c379a000000000000000000000000000000000000000000000000000000000815260206004820152605160248201527f524c505265616465723a206c656e677468206f6620636f6e74656e74206d757360448201527f74206265203e207468616e206c656e677468206f6620737472696e67206c656e60648201527f67746820286c6f6e6720737472696e6729000000000000000000000000000000608482015260a40161074d565b60018301517fff00000000000000000000000000000000000000000000000000000000000000166000819003614474576040517f08c379a000000000000000000000000000000000000000000000000000000000815260206004820152604a60248201527f524c505265616465723a206c656e677468206f6620636f6e74656e74206d757360448201527f74206e6f74206861766520616e79206c656164696e67207a65726f7320286c6f60648201527f6e6720737472696e672900000000000000000000000000000000000000000000608482015260a40161074d565b600184015160088302610100031c60378111614538576040517f08c379a000000000000000000000000000000000000000000000000000000000815260206004820152604860248201527f524c505265616465723a206c656e677468206f6620636f6e74656e74206d757360448201527f742062652067726561746572207468616e20353520627974657320286c6f6e6760648201527f20737472696e6729000000000000000000000000000000000000000000000000608482015260a40161074d565b6145428184615c27565b8951116145f7576040517f08c379a000000000000000000000000000000000000000000000000000000000815260206004820152604c60248201527f524c505265616465723a206c656e677468206f6620636f6e74656e74206d757360448201527f742062652067726561746572207468616e20746f74616c206c656e677468202860648201527f6c6f6e6720737472696e67290000000000000000000000000000000000000000608482015260a40161074d565b614602836001615c27565b9750955060009450614a3b9350505050565b60f781116146f557600061462960c08361599d565b9050808760000151116146e4576040517f08c379a000000000000000000000000000000000000000000000000000000000815260206004820152604a60248201527f524c505265616465723a206c656e677468206f6620636f6e74656e74206d757360448201527f742062652067726561746572207468616e206c697374206c656e67746820287360648201527f686f7274206c6973742900000000000000000000000000000000000000000000608482015260a40161074d565b600195509350849250614a3b915050565b600061470260f78361599d565b9050808760000151116147bd576040517f08c379a000000000000000000000000000000000000000000000000000000000815260206004820152604d60248201527f524c505265616465723a206c656e677468206f6620636f6e74656e74206d757360448201527f74206265203e207468616e206c656e677468206f66206c697374206c656e677460648201527f6820286c6f6e67206c6973742900000000000000000000000000000000000000608482015260a40161074d565b60018301517fff0000000000000000000000000000000000000000000000000000000000000016600081900361489b576040517f08c379a000000000000000000000000000000000000000000000000000000000815260206004820152604860248201527f524c505265616465723a206c656e677468206f6620636f6e74656e74206d757360448201527f74206e6f74206861766520616e79206c656164696e67207a65726f7320286c6f60648201527f6e67206c69737429000000000000000000000000000000000000000000000000608482015260a40161074d565b600184015160088302610100031c6037811161495f576040517f08c379a000000000000000000000000000000000000000000000000000000000815260206004820152604660248201527f524c505265616465723a206c656e677468206f6620636f6e74656e74206d757360448201527f742062652067726561746572207468616e20353520627974657320286c6f6e6760648201527f206c697374290000000000000000000000000000000000000000000000000000608482015260a40161074d565b6149698184615c27565b895111614a1e576040517f08c379a000000000000000000000000000000000000000000000000000000000815260206004820152604a60248201527f524c505265616465723a206c656e677468206f6620636f6e74656e74206d757360448201527f742062652067726561746572207468616e20746f74616c206c656e677468202860648201527f6c6f6e67206c6973742900000000000000000000000000000000000000000000608482015260a40161074d565b614a29836001615c27565b9750955060019450614a3b9350505050565b9193909250565b606060008267ffffffffffffffff811115614a5f57614a5f615060565b6040519080825280601f01601f191660200182016040528015614a89576020820181803683370190505b50905082600003614a9b579050612976565b6000614aa78587615c27565b90506020820160005b85811015614ac8578281015182820152602001614ab0565b85811115614ad7576000868301525b50919695505050505050565b6060611511826020015160008460000151614a42565b60608182601f011015614b68576040517f08c379a000000000000000000000000000000000000000000000000000000000815260206004820152600e60248201527f736c6963655f6f766572666c6f77000000000000000000000000000000000000604482015260640161074d565b828284011015614bd4576040517f08c379a000000000000000000000000000000000000000000000000000000000815260206004820152600e60248201527f736c6963655f6f766572666c6f77000000000000000000000000000000000000604482015260640161074d565b81830184511015614c41576040517f08c379a000000000000000000000000000000000000000000000000000000000815260206004820152601160248201527f736c6963655f6f75744f66426f756e6473000000000000000000000000000000604482015260640161074d565b606082158015614c605760405191506000825260208201604052614cc8565b6040519150601f8416801560200281840101858101878315602002848b0101015b81831015614c99578051835260209283019201614c81565b5050858452601f017fffffffffffffffffffffffffffffffffffffffffffffffffffffffffffffffe016604052505b50949350505050565b60408051808201909152600080825260208201526000825111614d9c576040517f08c379a000000000000000000000000000000000000000000000000000000000815260206004820152604a60248201527f524c505265616465723a206c656e677468206f6620616e20524c50206974656d60448201527f206d7573742062652067726561746572207468616e207a65726f20746f20626560648201527f206465636f6461626c6500000000000000000000000000000000000000000000608482015260a40161074d565b50604080518082019091528151815260209182019181019190915290565b60606000806000614dca85613fd5565b919450925090506001816001811115614de557614de5615cb3565b14614e72576040517f08c379a000000000000000000000000000000000000000000000000000000000815260206004820152603860248201527f524c505265616465723a206465636f646564206974656d207479706520666f7260448201527f206c697374206973206e6f742061206c697374206974656d0000000000000000606482015260840161074d565b8451614e7e8385615c27565b14614f0b576040517f08c379a000000000000000000000000000000000000000000000000000000000815260206004820152603260248201527f524c505265616465723a206c697374206974656d2068617320616e20696e766160448201527f6c696420646174612072656d61696e6465720000000000000000000000000000606482015260840161074d565b6040805160208082526104208201909252600091816020015b6040805180820190915260008082526020820152815260200190600190039081614f245790505090506000845b875181101561501257600080614f976040518060400160405280858d60000151614f7b919061599d565b8152602001858d60200151614f909190615c27565b9052613fd5565b509150915060405180604001604052808383614fb39190615c27565b8152602001848c60200151614fc89190615c27565b815250858581518110614fdd57614fdd615c3f565b6020908102919091010152614ff3600185615c27565b9350614fff8183615c27565b6150099084615c27565b92505050614f51565b50815295945050505050565b73ffffffffffffffffffffffffffffffffffffffff8116811461504057600080fd5b50565b60006020828403121561505557600080fd5b81356129768161501e565b7f4e487b7100000000000000000000000000000000000000000000000000000000600052604160045260246000fd5b604051601f82017fffffffffffffffffffffffffffffffffffffffffffffffffffffffffffffffe016810167ffffffffffffffff811182821017156150d6576150d6615060565b604052919050565b600082601f8301126150ef57600080fd5b813567ffffffffffffffff81111561510957615109615060565b61513a60207fffffffffffffffffffffffffffffffffffffffffffffffffffffffffffffffe0601f8401160161508f565b81815284602083860101111561514f57600080fd5b816020850160208301376000918101602001919091529392505050565b600060c0828403121561517e57600080fd5b60405160c0810167ffffffffffffffff82821081831117156151a2576151a2615060565b8160405282935084358352602085013591506151bd8261501e565b816020840152604085013591506151d38261501e565b816040840152606085013560608401526080850135608084015260a085013591508082111561520157600080fd5b5061520e858286016150de565b60a0830152505092915050565b600080600080600085870360e081121561523457600080fd5b863567ffffffffffffffff8082111561524c57600080fd5b6152588a838b0161516c565b97506020890135965060807fffffffffffffffffffffffffffffffffffffffffffffffffffffffffffffffc08401121561529157600080fd5b60408901955060c08901359250808311156152ab57600080fd5b828901925089601f8401126152bf57600080fd5b82359150808211156152d057600080fd5b508860208260051b84010111156152e657600080fd5b959894975092955050506020019190565b60005b838110156153125781810151838201526020016152fa565b83811115615321576000848401525b50505050565b6000815180845261533f8160208601602086016152f7565b601f017fffffffffffffffffffffffffffffffffffffffffffffffffffffffffffffffe0169290920160200192915050565b6020815260006129766020830184615327565b60006020828403121561539657600080fd5b5035919050565b6000602082840312156153af57600080fd5b813567ffffffffffffffff8111156153c657600080fd5b6127768482850161516c565b60008083601f8401126153e457600080fd5b50813567ffffffffffffffff8111156153fc57600080fd5b60208301915083602082850101111561541457600080fd5b9250929050565b60008060008060008060006080888a03121561543657600080fd5b873567ffffffffffffffff8082111561544e57600080fd5b61545a8b838c016153d2565b909950975060208a013591508082111561547357600080fd5b61547f8b838c016153d2565b909750955060408a013591508082111561549857600080fd5b506154a58a828b016153d2565b989b979a50959894979596606090950135949350505050565b803580151581146154ce57600080fd5b919050565b6000602082840312156154e557600080fd5b612976826154be565b600080600080600060a0868803121561550657600080fd5b85356155118161501e565b945060208601359350604086013567ffffffffffffffff808216821461553657600080fd5b819450615545606089016154be565b9350608088013591508082111561555b57600080fd5b50615568888289016150de565b9150509295509295909350565b60006020828403121561558757600080fd5b5051919050565b7f4e487b7100000000000000000000000000000000000000000000000000000000600052601160045260246000fd5b6000817fffffffffffffffffffffffffffffffffffffffffffffffffffffffffffffffff04831182151516156155f5576155f561558e565b500290565b7f4e487b7100000000000000000000000000000000000000000000000000000000600052601260045260246000fd5b600082615638576156386155fa565b500490565b8581528460208201527fffffffffffffffff0000000000000000000000000000000000000000000000008460c01b16604082015282151560f81b6048820152600082516156918160498501602087016152f7565b919091016049019695505050505050565b80516fffffffffffffffffffffffffffffffff811681146154ce57600080fd5b6000606082840312156156d457600080fd5b6040516060810181811067ffffffffffffffff821117156156f7576156f7615060565b6040528251815261570a602084016156a2565b602082015261571b604084016156a2565b60408201529392505050565b60006080828403121561573957600080fd5b6040516080810181811067ffffffffffffffff8211171561575c5761575c615060565b8060405250823581526020830135602082015260408301356040820152606083013560608201528091505092915050565b600067ffffffffffffffff808411156157a8576157a8615060565b8360051b60206157b981830161508f565b8681529185019181810190368411156157d157600080fd5b865b84811015615805578035868111156157eb5760008081fd5b6157f736828b016150de565b8452509183019183016157d3565b50979650505050505050565b600084516158238184602089016152f7565b80830190507f2e00000000000000000000000000000000000000000000000000000000000000808252855161585f816001850160208a016152f7565b6001920191820152835161587a8160028401602088016152f7565b0160020195945050505050565b8183528181602085013750600060208284010152600060207fffffffffffffffffffffffffffffffffffffffffffffffffffffffffffffffe0601f840116840101905092915050565b6080815260006158e460808301898b615887565b82810360208401526158f781888a615887565b9050828103604084015261590c818688615887565b91505082606083015298975050505050505050565b602081526000612973602083018486615887565b600082615944576159446155fa565b7fffffffffffffffffffffffffffffffffffffffffffffffffffffffffffffffff83147f8000000000000000000000000000000000000000000000000000000000000000831416156159985761599861558e565b500590565b6000828210156159af576159af61558e565b500390565b6000808312837f8000000000000000000000000000000000000000000000000000000000000000018312811516156159ee576159ee61558e565b837f7fffffffffffffffffffffffffffffffffffffffffffffffffffffffffffffff018313811615615a2257615a2261558e565b50500390565b60007f7fffffffffffffffffffffffffffffffffffffffffffffffffffffffffffffff600084136000841385830485118282161615615a6957615a6961558e565b7f80000000000000000000000000000000000000000000000000000000000000006000871286820588128184161615615aa457615aa461558e565b60008712925087820587128484161615615ac057615ac061558e565b87850587128184161615615ad657615ad661558e565b505050929093029392505050565b6000808212827f7fffffffffffffffffffffffffffffffffffffffffffffffffffffffffffffff03841381151615615b1e57615b1e61558e565b827f8000000000000000000000000000000000000000000000000000000000000000038412811615615b5257615b5261558e565b50500190565b600067ffffffffffffffff808316818516808303821115615b7b57615b7b61558e565b01949350505050565b868152600073ffffffffffffffffffffffffffffffffffffffff808816602084015280871660408401525084606083015283608083015260c060a0830152615bcf60c0830184615327565b98975050505050505050565b60007fffffffffffffffffffffffffffffffffffffffffffffffffffffffffffffffff8203615c0c57615c0c61558e565b5060010190565b600082615c2257615c226155fa565b500690565b60008219821115615c3a57615c3a61558e565b500190565b7f4e487b7100000000000000000000000000000000000000000000000000000000600052603260045260246000fd5b600060ff831680615c8157615c816155fa565b8060ff84160691505092915050565b600060ff821660ff841680821015615caa57615caa61558e565b90039392505050565b7f4e487b7100000000000000000000000000000000000000000000000000000000600052602160045260246000fdfea164736f6c634300080f000a",
  "devdoc": {
    "version": 1,
    "kind": "dev",
    "methods": {
      "constructor": {
        "params": {
          "_guardian": "Address that can pause deposits and withdrawals.",
          "_l2Oracle": "Address of the L2OutputOracle contract.",
          "_paused": "Sets the contract's pausability state."
        }
      },
      "depositTransaction(address,uint256,uint64,bool,bytes)": {
        "params": {
          "_data": "Data to trigger the recipient with.",
          "_gasLimit": "Minimum L2 gas limit (can be greater than or equal to this value).",
          "_isCreation": "Whether or not the transaction is a contract creation.",
          "_to": "Target address on L2.",
          "_value": "ETH value to send to the recipient."
        }
      },
      "finalizeWithdrawalTransaction((uint256,address,address,uint256,uint256,bytes))": {
        "params": {
          "_tx": "Withdrawal transaction to finalize."
        }
      },
      "isOutputFinalized(uint256)": {
        "params": {
          "_l2OutputIndex": "Index of the L2 output to check."
        },
        "returns": {
          "_0": "Whether or not the output is finalized."
        }
      },
      "proveWithdrawalTransaction((uint256,address,address,uint256,uint256,bytes),uint256,(bytes32,bytes32,bytes32,bytes32),bytes[])": {
        "params": {
          "_l2OutputIndex": "L2 output index to prove against.",
          "_outputRootProof": "Inclusion proof of the L2ToL1MessagePasser contract's storage root.",
          "_tx": "Withdrawal transaction to finalize.",
          "_withdrawalProof": "Inclusion proof of the withdrawal in L2ToL1MessagePasser contract."
        }
      },
      "version()": {
        "returns": {
          "_0": "Semver contract version as a string."
        }
      }
    },
    "events": {
      "Paused(address)": {
        "params": {
          "account": "Address of the account triggering the pause."
        }
      },
      "TransactionDeposited(address,address,uint256,bytes)": {
        "params": {
          "from": "Address that triggered the deposit transaction.",
          "opaqueData": "ABI encoded deposit data to be parsed off-chain.",
          "to": "Address that the deposit transaction is directed to.",
          "version": "Version of this deposit transaction event."
        }
      },
      "Unpaused(address)": {
        "params": {
          "account": "Address of the account triggering the unpause."
        }
      },
      "WithdrawalFinalized(bytes32,bool)": {
        "params": {
          "success": "Whether the withdrawal transaction was successful.",
          "withdrawalHash": "Hash of the withdrawal transaction."
        }
      },
      "WithdrawalProven(bytes32,address,address)": {
        "params": {
          "withdrawalHash": "Hash of the withdrawal transaction."
        }
      }
    }
  },
  "userdoc": {
    "version": 1,
    "kind": "user",
    "methods": {
      "BASE_FEE_MAX_CHANGE_DENOMINATOR()": {
        "notice": "Denominator that determines max change on fee per block."
      },
      "ELASTICITY_MULTIPLIER()": {
        "notice": "Along with the resource limit, determines the target resource limit."
      },
      "GUARDIAN()": {
        "notice": "Address that has the ability to pause and unpause withdrawals."
      },
      "INITIAL_BASE_FEE()": {
        "notice": "Initial base fee value. This value must be smaller than the         MAXIMUM_BASE_FEE."
      },
      "L2_ORACLE()": {
        "notice": "Address of the L2OutputOracle."
      },
      "MAXIMUM_BASE_FEE()": {
        "notice": "Maximum base fee value, cannot go higher than this.         It is possible for the MAXIMUM_BASE_FEE to raise to a value         that is so large it will consume the entire gas limit of         an L1 block."
      },
      "MAX_RESOURCE_LIMIT()": {
        "notice": "Maximum amount of the resource that can be used within this block.         This value cannot be larger than the L2 block gas limit."
      },
      "MINIMUM_BASE_FEE()": {
        "notice": "Minimum base fee value, cannot go lower than this."
      },
      "TARGET_RESOURCE_LIMIT()": {
        "notice": "Target amount of the resource that should be used within this block."
      },
      "depositTransaction(address,uint256,uint64,bool,bytes)": {
        "notice": "Accepts deposits of ETH and data, and emits a TransactionDeposited event for use in         deriving deposit transactions. Note that if a deposit is made by a contract, its         address will be aliased when retrieved using `tx.origin` or `msg.sender`. Consider         using the CrossDomainMessenger contracts for a simpler developer experience."
      },
      "donateETH()": {
        "notice": "Accepts ETH value without triggering a deposit to L2. This function mainly exists         for the sake of the migration between the legacy Optimism system and Bedrock."
      },
      "finalizeWithdrawalTransaction((uint256,address,address,uint256,uint256,bytes))": {
        "notice": "Finalizes a withdrawal transaction."
      },
      "finalizedWithdrawals(bytes32)": {
        "notice": "A list of withdrawal hashes which have been successfully finalized."
      },
      "initialize(bool)": {
        "notice": "Initializer."
      },
      "isOutputFinalized(uint256)": {
        "notice": "Determine if a given output is finalized. Reverts if the call to         L2_ORACLE.getL2Output reverts. Returns a boolean otherwise."
      },
      "l2Sender()": {
        "notice": "Address of the L2 account which initiated a withdrawal in this transaction. If the         of this variable is the default L2 sender address, then we are NOT inside of a call         to finalizeWithdrawalTransaction."
      },
      "params()": {
        "notice": "EIP-1559 style gas parameters."
      },
      "pause()": {
        "notice": "Pause deposits and withdrawals."
      },
      "paused()": {
        "notice": "Determines if cross domain messaging is paused. When set to true,         deposits and withdrawals are paused. This may be removed in the         future."
      },
      "proveWithdrawalTransaction((uint256,address,address,uint256,uint256,bytes),uint256,(bytes32,bytes32,bytes32,bytes32),bytes[])": {
        "notice": "Proves a withdrawal transaction."
      },
      "provenWithdrawals(bytes32)": {
        "notice": "A mapping of withdrawal hashes to `ProvenWithdrawal` data."
      },
      "unpause()": {
        "notice": "Unpause deposits and withdrawals."
      },
      "version()": {
        "notice": "Returns the full semver contract version."
      }
    },
    "events": {
      "Paused(address)": {
        "notice": "Emitted when the pause is triggered."
      },
      "TransactionDeposited(address,address,uint256,bytes)": {
        "notice": "Emitted when a transaction is deposited from L1 to L2. The parameters of this event         are read by the rollup node and used to derive deposit transactions on L2."
      },
      "Unpaused(address)": {
        "notice": "Emitted when the pause is lifted."
      },
      "WithdrawalFinalized(bytes32,bool)": {
        "notice": "Emitted when a withdrawal transaction is finalized."
      },
      "WithdrawalProven(bytes32,address,address)": {
        "notice": "Emitted when a withdrawal transaction is proven."
      }
    },
    "notice": "The OptimismPortal is a low-level contract responsible for passing messages between L1         and L2. Messages sent directly to the OptimismPortal have no form of replayability.         Users are encouraged to use the L1CrossDomainMessenger for a higher-level interface."
  },
  "storageLayout": {
    "storage": [
      {
        "astId": 48594,
        "contract": "contracts/L1/OptimismPortal.sol:OptimismPortal",
        "label": "_initialized",
        "offset": 0,
        "slot": "0",
        "type": "t_uint8"
      },
      {
        "astId": 48597,
        "contract": "contracts/L1/OptimismPortal.sol:OptimismPortal",
        "label": "_initializing",
        "offset": 1,
        "slot": "0",
        "type": "t_bool"
      },
      {
        "astId": 1921,
        "contract": "contracts/L1/OptimismPortal.sol:OptimismPortal",
        "label": "params",
        "offset": 0,
        "slot": "1",
        "type": "t_struct(ResourceParams)1877_storage"
      },
      {
        "astId": 1926,
        "contract": "contracts/L1/OptimismPortal.sol:OptimismPortal",
        "label": "__gap",
        "offset": 0,
        "slot": "2",
        "type": "t_array(t_uint256)48_storage"
      },
      {
        "astId": 1287,
        "contract": "contracts/L1/OptimismPortal.sol:OptimismPortal",
        "label": "l2Sender",
        "offset": 0,
        "slot": "50",
        "type": "t_address"
      },
      {
        "astId": 1292,
        "contract": "contracts/L1/OptimismPortal.sol:OptimismPortal",
        "label": "finalizedWithdrawals",
        "offset": 0,
        "slot": "51",
        "type": "t_mapping(t_bytes32,t_bool)"
      },
      {
        "astId": 1298,
        "contract": "contracts/L1/OptimismPortal.sol:OptimismPortal",
        "label": "provenWithdrawals",
        "offset": 0,
        "slot": "52",
        "type": "t_mapping(t_bytes32,t_struct(ProvenWithdrawal)1269_storage)"
      },
      {
        "astId": 1301,
        "contract": "contracts/L1/OptimismPortal.sol:OptimismPortal",
        "label": "paused",
        "offset": 0,
        "slot": "53",
        "type": "t_bool"
      }
    ],
    "types": {
      "t_address": {
        "encoding": "inplace",
        "label": "address",
        "numberOfBytes": "20"
      },
      "t_array(t_uint256)48_storage": {
        "encoding": "inplace",
        "label": "uint256[48]",
        "numberOfBytes": "1536",
        "base": "t_uint256"
      },
      "t_bool": {
        "encoding": "inplace",
        "label": "bool",
        "numberOfBytes": "1"
      },
      "t_bytes32": {
        "encoding": "inplace",
        "label": "bytes32",
        "numberOfBytes": "32"
      },
      "t_mapping(t_bytes32,t_bool)": {
        "encoding": "mapping",
        "key": "t_bytes32",
        "label": "mapping(bytes32 => bool)",
        "numberOfBytes": "32",
        "value": "t_bool"
      },
      "t_mapping(t_bytes32,t_struct(ProvenWithdrawal)1269_storage)": {
        "encoding": "mapping",
        "key": "t_bytes32",
        "label": "mapping(bytes32 => struct OptimismPortal.ProvenWithdrawal)",
        "numberOfBytes": "32",
        "value": "t_struct(ProvenWithdrawal)1269_storage"
      },
      "t_struct(ProvenWithdrawal)1269_storage": {
        "encoding": "inplace",
        "label": "struct OptimismPortal.ProvenWithdrawal",
        "numberOfBytes": "64",
        "members": [
          {
            "astId": 1264,
            "contract": "contracts/L1/OptimismPortal.sol:OptimismPortal",
            "label": "outputRoot",
            "offset": 0,
            "slot": "0",
            "type": "t_bytes32"
          },
          {
            "astId": 1266,
            "contract": "contracts/L1/OptimismPortal.sol:OptimismPortal",
            "label": "timestamp",
            "offset": 0,
            "slot": "1",
            "type": "t_uint128"
          },
          {
            "astId": 1268,
            "contract": "contracts/L1/OptimismPortal.sol:OptimismPortal",
            "label": "l2OutputIndex",
            "offset": 16,
            "slot": "1",
            "type": "t_uint128"
          }
        ]
      },
      "t_struct(ResourceParams)1877_storage": {
        "encoding": "inplace",
        "label": "struct ResourceMetering.ResourceParams",
        "numberOfBytes": "32",
        "members": [
          {
            "astId": 1872,
            "contract": "contracts/L1/OptimismPortal.sol:OptimismPortal",
            "label": "prevBaseFee",
            "offset": 0,
            "slot": "0",
            "type": "t_uint128"
          },
          {
            "astId": 1874,
            "contract": "contracts/L1/OptimismPortal.sol:OptimismPortal",
            "label": "prevBoughtGas",
            "offset": 16,
            "slot": "0",
            "type": "t_uint64"
          },
          {
            "astId": 1876,
            "contract": "contracts/L1/OptimismPortal.sol:OptimismPortal",
            "label": "prevBlockNum",
            "offset": 24,
            "slot": "0",
            "type": "t_uint64"
          }
        ]
      },
      "t_uint128": {
        "encoding": "inplace",
        "label": "uint128",
        "numberOfBytes": "16"
      },
      "t_uint256": {
        "encoding": "inplace",
        "label": "uint256",
        "numberOfBytes": "32"
      },
      "t_uint64": {
        "encoding": "inplace",
        "label": "uint64",
        "numberOfBytes": "8"
      },
      "t_uint8": {
        "encoding": "inplace",
        "label": "uint8",
        "numberOfBytes": "1"
      }
    }
  }
}