{
  "address": "0x9209A7d8C47eb8f3383a8377239ebD9331b9d844",
  "abi": [
    {
      "inputs": [
        {
          "internalType": "address",
          "name": "_portal",
          "type": "address"
        }
      ],
      "stateMutability": "nonpayable",
      "type": "constructor"
    },
    {
      "inputs": [],
      "name": "NotOptimismPortal",
      "type": "error"
    },
    {
      "inputs": [],
      "name": "NotOracle",
      "type": "error"
    },
    {
      "inputs": [],
      "name": "OptimismPortal",
      "outputs": [
        {
          "internalType": "address",
          "name": "",
          "type": "address"
        }
      ],
      "stateMutability": "view",
      "type": "function"
    },
    {
      "inputs": [
        {
          "internalType": "bytes",
          "name": "_pubKey",
          "type": "bytes"
        }
      ],
      "name": "addDepositValidator",
      "outputs": [],
      "stateMutability": "nonpayable",
      "type": "function"
    },
    {
      "inputs": [
        {
          "internalType": "uint256",
          "name": "",
          "type": "uint256"
        }
      ],
      "name": "depositValidators",
      "outputs": [
        {
          "internalType": "bytes",
          "name": "",
          "type": "bytes"
        }
      ],
      "stateMutability": "view",
      "type": "function"
    },
    {
      "inputs": [],
      "name": "getPrice",
      "outputs": [
        {
          "internalType": "uint256",
          "name": "price",
          "type": "uint256"
        }
      ],
      "stateMutability": "view",
      "type": "function"
    },
    {
      "inputs": [
        {
          "internalType": "uint256",
          "name": "_ethDeposited",
          "type": "uint256"
        },
        {
          "internalType": "uint256",
          "name": "_ethMinted",
          "type": "uint256"
        }
      ],
      "name": "updateDeposit",
      "outputs": [],
      "stateMutability": "nonpayable",
      "type": "function"
    },
    {
      "inputs": [
        {
          "components": [
            {
              "internalType": "bytes",
              "name": "publicKey",
              "type": "bytes"
            },
            {
              "internalType": "uint256",
              "name": "amount",
              "type": "uint256"
            }
          ],
          "internalType": "struct StakingFee.ValidatorSlashed[]",
          "name": "_validators",
          "type": "tuple[]"
        }
      ],
      "name": "validatorSlashed",
      "outputs": [],
      "stateMutability": "nonpayable",
      "type": "function"
    },
    {
      "stateMutability": "payable",
      "type": "receive"
    }
  ],
  "transactionHash": "0xb4ee6ad1591feecdfcd35b7b1168c131e20bf07751f39b2322ce294a2494ed67",
  "args": [
    "0xDeB7fc3bBd0B7B87eF79d9211919dfe06cEbB21e"
  ],
  "numDeployments": 1,
  "solcInputHash": "d443a1fd2472e4d9df50e8d1287c8a5a",
  "bytecode": "0x6080604052600060035560006004556000600555600060065534801561002457600080fd5b50604051610a06380380610a0683398101604081905261004391610068565b600180546001600160a01b0319166001600160a01b0392909216919091179055610098565b60006020828403121561007a57600080fd5b81516001600160a01b038116811461009157600080fd5b9392505050565b61095f806100a76000396000f3fe6080604052600436106100695760003560e01c806345cd6cb21161004357806345cd6cb2146100ef57806398d5fdca14610125578063c1578e831461014857600080fd5b80630ea9c0ab1461008d5780631d10faf6146100af57806323989ed2146100cf57600080fd5b366100885734600360008282546100809190610497565b925050819055005b600080fd5b34801561009957600080fd5b506100ad6100a83660046104af565b61019a565b005b3480156100bb57600080fd5b506100ad6100ca366004610521565b61022d565b3480156100db57600080fd5b506100ad6100ea366004610543565b6102b5565b3480156100fb57600080fd5b5061010f61010a3660046105a6565b610362565b60405161011c91906105bf565b60405180910390f35b34801561013157600080fd5b5061013a61040e565b60405190815260200161011c565b34801561015457600080fd5b506001546101759073ffffffffffffffffffffffffffffffffffffffff1681565b60405173ffffffffffffffffffffffffffffffffffffffff909116815260200161011c565b600154339073ffffffffffffffffffffffffffffffffffffffff1681146101ed576040517f051a46ee00000000000000000000000000000000000000000000000000000000815260040160405180910390fd5b600080546001810182559080527f290decd9548b62a8d60345a988386fc84ba6bc95484008f6362f93160ef3e56301610227838583610703565b50505050565b600154339073ffffffffffffffffffffffffffffffffffffffff168114610280576040517f051a46ee00000000000000000000000000000000000000000000000000000000815260040160405180910390fd5b82600460008282546102929190610497565b9250508190555081600560008282546102ab9190610497565b9091555050505050565b600254339073ffffffffffffffffffffffffffffffffffffffff168114610308576040517f1bc2178f00000000000000000000000000000000000000000000000000000000815260040160405180910390fd5b60005b82811015610227578383828181106103255761032561081e565b9050602002810190610337919061084d565b602001356006600082825461034c9190610497565b9091555061035b90508161088b565b905061030b565b6000818154811061037257600080fd5b90600052602060002001600091509050805461038d90610661565b80601f01602080910402602001604051908101604052809291908181526020018280546103b990610661565b80156104065780601f106103db57610100808354040283529160200191610406565b820191906000526020600020905b8154815290600101906020018083116103e957829003601f168201915b505050505081565b60006004546000036104275750670de0b6b3a764000090565b60055460065460035460045461043d9190610497565b61044791906108c3565b61045990670de0b6b3a76400006108da565b6104639190610917565b905090565b7f4e487b7100000000000000000000000000000000000000000000000000000000600052601160045260246000fd5b600082198211156104aa576104aa610468565b500190565b600080602083850312156104c257600080fd5b823567ffffffffffffffff808211156104da57600080fd5b818501915085601f8301126104ee57600080fd5b8135818111156104fd57600080fd5b86602082850101111561050f57600080fd5b60209290920196919550909350505050565b6000806040838503121561053457600080fd5b50508035926020909101359150565b6000806020838503121561055657600080fd5b823567ffffffffffffffff8082111561056e57600080fd5b818501915085601f83011261058257600080fd5b81358181111561059157600080fd5b8660208260051b850101111561050f57600080fd5b6000602082840312156105b857600080fd5b5035919050565b600060208083528351808285015260005b818110156105ec578581018301518582016040015282016105d0565b818111156105fe576000604083870101525b50601f017fffffffffffffffffffffffffffffffffffffffffffffffffffffffffffffffe016929092016040019392505050565b7f4e487b7100000000000000000000000000000000000000000000000000000000600052604160045260246000fd5b600181811c9082168061067557607f821691505b6020821081036106ae577f4e487b7100000000000000000000000000000000000000000000000000000000600052602260045260246000fd5b50919050565b601f8211156106fe57600081815260208120601f850160051c810160208610156106db5750805b601f850160051c820191505b818110156106fa578281556001016106e7565b5050505b505050565b67ffffffffffffffff83111561071b5761071b610632565b61072f836107298354610661565b836106b4565b6000601f841160018114610781576000851561074b5750838201355b7fffffffffffffffffffffffffffffffffffffffffffffffffffffffffffffffff600387901b1c1916600186901b178355610817565b6000838152602090207fffffffffffffffffffffffffffffffffffffffffffffffffffffffffffffffe0861690835b828110156107d057868501358255602094850194600190920191016107b0565b508682101561080b577fffffffffffffffffffffffffffffffffffffffffffffffffffffffffffffffff60f88860031b161c19848701351681555b505060018560011b0183555b5050505050565b7f4e487b7100000000000000000000000000000000000000000000000000000000600052603260045260246000fd5b600082357fffffffffffffffffffffffffffffffffffffffffffffffffffffffffffffffc183360301811261088157600080fd5b9190910192915050565b60007fffffffffffffffffffffffffffffffffffffffffffffffffffffffffffffffff82036108bc576108bc610468565b5060010190565b6000828210156108d5576108d5610468565b500390565b6000817fffffffffffffffffffffffffffffffffffffffffffffffffffffffffffffffff048311821515161561091257610912610468565b500290565b60008261094d577f4e487b7100000000000000000000000000000000000000000000000000000000600052601260045260246000fd5b50049056fea164736f6c634300080f000a",
  "devdoc": {
    "version": 1,
    "kind": "dev"
  },
  "userdoc": {
    "version": 1,
    "kind": "user"
  },
  "storageLayout": {
    "storage": [
      {
        "astId": 2302,
        "contract": "contracts/L1/StakingFee.sol:StakingFee",
        "label": "depositValidators",
        "offset": 0,
        "slot": "0",
        "type": "t_array(t_bytes_storage)dyn_storage"
      },
      {
        "astId": 2304,
        "contract": "contracts/L1/StakingFee.sol:StakingFee",
        "label": "OptimismPortal",
        "offset": 0,
        "slot": "1",
        "type": "t_address"
      },
      {
        "astId": 2306,
        "contract": "contracts/L1/StakingFee.sol:StakingFee",
        "label": "Oracle",
        "offset": 0,
        "slot": "2",
        "type": "t_address"
      },
      {
        "astId": 2309,
        "contract": "contracts/L1/StakingFee.sol:StakingFee",
        "label": "rewards",
        "offset": 0,
        "slot": "3",
        "type": "t_uint256"
      },
      {
        "astId": 2312,
        "contract": "contracts/L1/StakingFee.sol:StakingFee",
        "label": "ethDeposited",
        "offset": 0,
        "slot": "4",
        "type": "t_uint256"
      },
      {
        "astId": 2315,
        "contract": "contracts/L1/StakingFee.sol:StakingFee",
        "label": "ethMintedOptimism",
        "offset": 0,
        "slot": "5",
        "type": "t_uint256"
      },
      {
        "astId": 2318,
        "contract": "contracts/L1/StakingFee.sol:StakingFee",
        "label": "ethSlashed",
        "offset": 0,
        "slot": "6",
        "type": "t_uint256"
      }
    ],
    "types": {
      "t_address": {
        "encoding": "inplace",
        "label": "address",
        "numberOfBytes": "20"
      },
      "t_array(t_bytes_storage)dyn_storage": {
        "encoding": "dynamic_array",
        "label": "bytes[]",
        "numberOfBytes": "32",
        "base": "t_bytes_storage"
      },
      "t_bytes_storage": {
        "encoding": "bytes",
        "label": "bytes",
        "numberOfBytes": "32"
      },
      "t_uint256": {
        "encoding": "inplace",
        "label": "uint256",
        "numberOfBytes": "32"
      }
    }
  }
}